:020000040800F2
:1000000000280020DD080008650800086D080008C9
:10001000750800087D080008850800080000000039
:100020000000000000000000000000008D08000833
:100030009908000800000000A5080008B1080008A1
:1000400025090008250900082509000825090008D8
:1000500025090008250900082509000825090008C8
:1000600025090008250900082509000825090008B8
:1000700025090008250900082509000825090008A8
:100080002509000825090008250900082509000898
:100090002509000825090008250900082509000888
:1000A0002509000825090008250900082509000878
:1000B000BD08000825090008000000002509000807
:1000C00025090008000000000000000025090008C4
:1000D00000000000250900082509000800000000B4
:1000E000250900082509000825090008000000006E
:1000F0000000000000000000000000000000000000
:0C01000000000000000000005FF808F1A3
:10010C0010B5054C237833B9044B13B10448AFF345
:10011C0000800123237010BD180000200000000097
:10012C00141F000808B5034B1BB103490348AFF378
:10013C00008008BD000000001C000020141F0008F7
:10014C0080B582B000AF0346FB71FB7903F001036D
:10015C00002B0CBF01230023DBB21A464FF40041E5
:10016C00324800F0C7FEFB7903F00203002B0CBFF2
:10017C0001230023DBB21A464FF480412B4800F0D8
:10018C00B9FEFB7903F00403002B0CBF0123002301
:10019C00DBB21A464FF40051244800F0ABFEFB7959
:1001AC0003F00803002B0CBF01230023DBB21A461B
:1001BC004FF480511D4800F09DFEFB7903F01003B5
:1001CC00002B0CBF01230023DBB21A464FF4006155
:1001DC00164800F08FFEFB7903F02003002B0CBFB8
:1001EC0001230023DBB21A464FF480610F4800F064
:1001FC0081FEFB7903F04003002B0CBF012300238D
:10020C00DBB21A460821094800F074FE97F9073052
:10021C00DB43DBB2DB09DBB21A460421034800F0F6
:10022C0069FE00BF0837BD4680BD00BF0008014015
:10023C0080B500AF01224FF48071174800F05AFED0
:10024C0001224FF40071144800F054FE01224FF4C7
:10025C008061114800F04EFE01224FF400610E48FF
:10026C0000F048FE01224FF480510B4800F042FE92
:10027C0001224FF40051084800F03CFE01224FF4DB
:10028C008041054800F036FE01224FF4004102483F
:10029C0000F030FE00BF80BD000C014080B582B084
:1002AC0000AF78607B68072B00F2A48001A252F8A3
:1002BC0023F000BFE1020008050300082903000831
:1002CC004D0300087103000895030008B9030008EA
:1002DC00DD0300084A4B1B781846FFF731FF01225B
:1002EC004FF40041474800F005FE00224FF48071A6
:1002FC00444800F0FFFD7EE0414B5B781846FFF769
:10030C001FFF01224FF480713E4800F0F3FD0022E4
:10031C004FF400713B4800F0EDFD6CE0384B9B78DE
:10032C001846FFF70DFF01224FF40071354800F01D
:10033C00E1FD00224FF48061324800F0DBFD5AE011
:10034C002F4BDB781846FFF7FBFE01224FF4806140
:10035C002C4800F0CFFD00224FF40061294800F03A
:10036C00C9FD48E0264B1B791846FFF7E9FE012230
:10037C004FF40061234800F0BDFD00224FF4805182
:10038C00204800F0B7FD36E01D4B5B791846FFF7AF
:10039C00D7FE01224FF480511A4800F0ABFD002229
:1003AC004FF40051174800F0A5FD24E0144B9B7945
:1003BC001846FFF7C5FE01224FF40051114800F01A
:1003CC0099FD00224FF480410E4800F093FD12E09D
:1003DC000B4BDB791846FFF7B3FE01224FF480413B
:1003EC00084800F087FD00224FF40041054800F05A
:1003FC0081FD00E000BF00BF0837BD4680BD00BFD7
:10040C0000000020000C014080B483B000AF3E4BD4
:10041C001B78DB09DBB27B603B4B1B785B00DAB2F1
:10042C007B68DBB21344DAB2374B1A70364B5B780D
:10043C00DB09DBB27B60344B5B785B00DAB27B6848
:10044C00DBB21344DAB2304B5A702F4B9B78DB097A
:10045C00DBB27B602C4B9B785B00DAB27B68DBB247
:10046C001344DAB2284B9A70274BDB78DB09DBB2EA
:10047C007B60254BDB785B00DAB27B68DBB2134424
:10048C00DAB2214BDA70204B1B79DB09DBB27B60D3
:10049C001D4B1B795B00DAB27B68DBB21344DAB21A
:1004AC00194B1A71184B5B79DB09DBB27B60164B6D
:1004BC005B795B00DAB27B68DBB21344DAB2124BC5
:1004CC005A71114B9B79DB09DBB27B600E4B9B792C
:1004DC005B00DAB27B68DBB21344DAB20A4B9A7176
:1004EC00094BDB79DB09DBB27B60074BDB795B000B
:1004FC00DAB27B68DBB21344DAB2034BDA7100BFB9
:10050C000C37BD4680BC70470000002080B483B01F
:10051C0000AF7860074B1B687A6892FBF3F3064ACE
:10052C001360064B00221A6000BF0C37BD4680BC1E
:10053C00704700BF080000207C00002080000020D5
:10054C0080B400AF094B1B68002B0BDD074B1B68FD
:10055C00013B064A1360054B1B68002B02D1044B70
:10056C0001221A6000BFBD4680BC70477C00002091
:10057C008000002080B582B000AF00F0CFF900F011
:10058C0027F800F0ADF800F05FF80F4801F0F8F82C
:10059C000A20FFF7BBFF00237B60FFF749FE0B4BE4
:1005AC001B68012BFBD12820FFF7B0FF7B685A1C7E
:1005BC007A601846FFF772FE7B68072BEFDDFFF7BA
:1005CC0023FF00237B60EAE734000020800000203A
:1005DC0080B590B000AF07F118032822002118460F
:1005EC0001F066FC3B1D00221A605A609A60DA60CA
:1005FC001A610223BB610123BB621023FB6200233F
:10060C007B6307F11803184600F08CFC0346002BA3
:10061C0001D000F0C5F80F237B600023BB600023E2
:10062C00FB6000233B6100237B613B1D00211846CE
:10063C0000F0FAFE0346002B01D000F0B1F800BF29
:10064C004037BD4680BD000080B586B000AF07F1D5
:10065C00080300221A605A609A60DA603B46002256
:10066C001A605A601D4B4FF080421A601B4B41F6CA
:10067C003F725A60194B00229A60184B0922DA60BB
:10068C00164B00221A61154B00229A61134801F097
:10069C0027F80346002B01D000F082F84FF480536A
:1006AC00BB6007F1080319460C4801F0BDF903467D
:1006BC00002B01D000F074F800233B6000237B601A
:1006CC003B461946054801F089FB0346002B01D037
:1006DC0000F066F800BF1837BD4680BD340000201E
:1006EC0080B586B000AF07F1080300221A605A608B
:1006FC009A60DA60224B9B69214A43F004039361B0
:10070C001F4B9B6903F004037B607B681C4B9B694C
:10071C001B4A43F008039361194B9B6903F00803D0
:10072C003B603B6800224FF6FC71164800F0E2FB80
:10073C0000224FF67F71144800F0DCFB4FF6FC737F
:10074C00BB600123FB6000233B6102237B6107F14B
:10075C00080319460B4800F051FA4FF67F73BB6043
:10076C000123FB6000233B6102237B6107F108033B
:10077C001946054800F042FA00BF1837BD4680BD47
:10078C000010024000080140000C014080B582B00E
:10079C0000AF7860FFF7D4FE00BF0837BD4680BDC0
:1007AC0080B400AF72B600BF00BFFDE780B485B067
:1007BC0000AF154B9B69144A43F001039361124B34
:1007CC009B6903F00103BB60BB680F4BDB690E4AEE
:1007DC0043F08053D3610C4BDB6903F080537B6097
:1007EC007B680A4B5B68FB60FB6823F0E063FB6093
:1007FC00FB6843F08063FB60044AFB68536000BFF6
:10080C001437BD4680BC7047001002400000014008
:10081C0080B584B000AF78607B681B68B3F1804F03
:10082C0013D10C4BDB690B4A43F00103D361094B29
:10083C00DB6903F00103FB60FB68002200211C2034
:10084C0000F0A5F91C2000F0BEF900BF1037BD4622
:10085C0080BD00BF0010024080B400AF00BFFDE7B8
:10086C0080B400AF00BFFDE780B400AF00BFFDE770
:10087C0080B400AF00BFFDE780B400AF00BFFDE760
:10088C0080B400AF00BFBD4680BC704780B400AFE1
:10089C0000BFBD4680BC704780B400AF00BFBD46F2
:1008AC0080BC704780B500AF00F07EF800BF80BD03
:1008BC0080B500AF024800F0AFFF00BF80BD00BFA5
:1008CC003400002080B400AF00BFBD4680BC704730
:1008DC00FFF7F8FF0B480C490C4A002302E0D458F0
:1008EC00C4500433C4188C42F9D3094A094C002370
:1008FC0001E013600432A242FBD301F0E1FAFFF7EE
:10090C0039FE70470000002018000020581F000816
:10091C001800002088000020FEE7000080B500AF22
:10092C00084B1B68074A43F010031360032000F0C8
:10093C0023F90F2000F008F8FFF738FF00231846C2
:10094C0080BD00BF0020024080B582B000AF78604F
:10095C00124B1A68124B1B7819464FF47A73B3FB7F
:10096C00F1F3B2FBF3F3184600F03BF90346002B0E
:10097C0001D001230EE07B680F2B0AD80022796886
:10098C004FF0FF3000F003F9064A7B681360002338
:10099C0000E0012318460837BD4680BD0C0000203E
:1009AC00140000201000002080B400AF054B1B7811
:1009BC001A46054B1B681344034A136000BFBD461F
:1009CC0080BC7047140000208400002080B400AF6D
:1009DC00024B1B681846BD4680BC70478400002043
:1009EC0080B485B000AF78607B6803F00703FB60D0
:1009FC000C4BDB68BB60BA684FF6FF031340BB605F
:100A0C00FB681A02BB68134343F0BF6343F4003323
:100A1C00BB60044ABB68D36000BF1437BD4680BCC2
:100A2C00704700BF00ED00E080B400AF044BDB6802
:100A3C001B0A03F007031846BD4680BC704700BF75
:100A4C0000ED00E080B483B000AF0346FB7197F972
:100A5C000730002B0BDBFB7903F01F02064997F9DB
:100A6C0007305B09012000FA02F241F8232000BF95
:100A7C000C37BD4680BC704700E100E080B483B009
:100A8C0000AF03463960FB7197F90730002B0ADB86
:100A9C003B68DAB20C4997F907301201D2B20B4419
:100AAC0083F800230AE03B68DAB20849FB7903F0CB
:100ABC000F03043B1201D2B20B441A7600BF0C3761
:100ACC00BD4680BC704700BF00E100E000ED00E0D7
:100ADC0080B489B000AFF860B9607A60FB6803F04D
:100AEC000703FB61FB69C3F10703042B28BF042335
:100AFC00BB61FB690433062B02D9FB69033B00E0A5
:100B0C0000237B614FF0FF32BB6902FA03F3DA4337
:100B1C00BB681A407B699A404FF0FF317B6901FA40
:100B2C0003F3D9437B680B40134318462437BD4667
:100B3C0080BC704780B582B000AF78607B68013BA9
:100B4C00B3F1807F01D301230FE00A4A7B68013B9C
:100B5C0053600F214FF0FF30FFF790FF054B002241
:100B6C009A60044B07221A60002318460837BD46CA
:100B7C0080BD00BF10E000E080B582B000AF7860AF
:100B8C007868FFF72DFF00BF0837BD4680BD80B5E4
:100B9C0086B000AF0346B9607A60FB7300237B61BB
:100BAC00FFF742FF78617A68B9687869FFF790FFC0
:100BBC00024697F90F3011461846FFF75FFF00BF4A
:100BCC001837BD4680BD80B582B000AF0346FB71BF
:100BDC0097F907301846FFF735FF00BF0837BD46B9
:100BEC0080BD80B582B000AF78607868FFF7A2FF57
:100BFC00034618460837BD4680BD000080B48BB054
:100C0C0000AF7860396000237B6200233B6261E1B6
:100C1C0001227B6A02FA03F3FB613B681B68FA69E9
:100C2C001340BB61BA69FB699A4240F050813B6842
:100C3C005B68974A93425ED0954A934275D8954A21
:100C4C00934258D0934A93426FD8934A934252D0CE
:100C5C00914A934269D8914A93424CD08F4A93421D
:100C6C0063D88F4A934246D08D4A93425DD8122B5B
:100C7C002AD8122B59D801A252F823F0030D0008E0
:100C8C00DD0C0008EF0C0008310D0008370D0008D2
:100C9C00370D0008370D0008370D0008370D000818
:100CAC00370D0008370D0008370D0008370D000808
:100CBC00370D0008370D0008370D0008370D0008F8
:100CCC00E50C0008F90C0008764A934213D02CE08E
:100CDC003B68DB683B6229E03B68DB6804333B62C2
:100CEC0024E03B68DB6808333B621FE03B68DB6851
:100CFC000C333B621AE03B689B68002B02D1042347
:100D0C003B6213E03B689B68012B05D108233B62D7
:100D1C007B68FA691A6109E008233B627B68FA690F
:100D2C005A6103E000233B6200E000BFBB69FF2B6C
:100D3C0001D87B6801E07B6804337B61BB69FF2BC6
:100D4C0002D87B6A9B0002E07B6A083B9B003B61FC
:100D5C007B691A680F213B6901FA03F3DB431A40E4
:100D6C00396A3B6901FA03F31A437B691A603B68E1
:100D7C005B6803F08053002B00F0A9804A4B9B6901
:100D8C00494A43F001039361474B9B6903F001030C
:100D9C00BB60BB68454A7B6A9B08023352F8233020
:100DAC00FB607B6A03F003039B000F2202FA03F340
:100DBC00DB43FA681340FB607B683D4A93420DD0DD
:100DCC007B683C4A934207D07B683B4A934201D1F3
:100DDC00022304E0032302E0012300E000237A6AEB
:100DEC0002F0030292009340FA681343FB602F4910
:100DFC007B6A9B080233FA6841F823203B685B68E6
:100E0C0003F48013002B06D02C4B9A682B49BB693A
:100E1C0013438B6006E0294B9A68BB69DB43274977
:100E2C0013408B603B685B6803F40013002B06D007
:100E3C00224BDA682149BB691343CB6006E01F4B98
:100E4C00DA68BB69DB431D491340CB603B685B68C8
:100E5C0003F40033002B06D0184B5A681749BB69B2
:100E6C0013434B6006E0154B5A68BB69DB431349CF
:100E7C0013404B603B685B6803F48033002B1FD03E
:100E8C000E4B1A680D49BB6913430B601FE000BF82
:100E9C000000321000003110000022100000211060
:100EAC000000121000001110001002400000014060
:100EBC0000080140000C01400010014000040140FA
:100ECC000B4B1A68BB69DB43094913400B607B6A07
:100EDC0001337B623B681A687B6A22FA03F3002BAE
:100EEC007FF496AE00BF00BF2C37BD4680BC704768
:100EFC000004014080B483B000AF78600B467B8067
:100F0C0013467B707B78002B03D07A887B681A6140
:100F1C0003E07B881A047B681A6100BF0C37BD465E
:100F2C0080BC704780B586B000AF78607B68002BC2
:100F3C0001D1012372E27B681B6803F00103002BD3
:100F4C0000F08780924B5B6803F00C03042B0CD0F1
:100F5C008F4B5B6803F00C03082B12D18C4B5B6836
:100F6C0003F48033B3F5803F0BD1894B1B6803F43A
:100F7C000033002B6CD07B685B68002B68D101239D
:100F8C004CE27B685B68B3F5803F06D1804B1B68F5
:100F9C007F4A43F4803313602EE07B685B68002B40
:100FAC000CD17B4B1B687A4A23F480331360784B4B
:100FBC001B68774A23F4802313601DE07B685B6811
:100FCC00B3F5A02F0CD1724B1B68714A43F48023EC
:100FDC0013606F4B1B686E4A43F4803313600BE055
:100FEC006B4B1B686A4A23F480331360684B1B6895
:100FFC00674A23F4802313607B685B68002B13D053
:10100C00FFF7E4FC386108E0FFF7E0FC02463B69BF
:10101C00D31A642B01D9032300E25D4B1B6803F444
:10102C000033002BF0D014E0FFF7D0FC386108E05F
:10103C00FFF7CCFC02463B69D31A642B01D903237E
:10104C00ECE1534B1B6803F40033002BF0D100E0B0
:10105C0000BF7B681B6803F00203002B63D04C4B72
:10106C005B6803F00C03002B0BD0494B5B6803F05F
:10107C000C03082B1CD1464B5B6803F48033002B0C
:10108C0016D1434B1B6803F00203002B05D07B6881
:10109C001B69012B01D00123C0E13D4B1B6823F0E0
:1010AC00F8027B685B69DB00394913430B603AE05B
:1010BC007B681B69002B20D0364B01221A60FFF78E
:1010CC0085FC386108E0FFF781FC02463B69D31AC6
:1010DC00022B01D90323A1E12D4B1B6803F0020362
:1010EC00002BF0D02A4B1B6823F0F8027B685B695D
:1010FC00DB00274913430B6015E0264B00221A60D6
:10110C00FFF764FC386108E0FFF760FC02463B69BE
:10111C00D31A022B01D9032380E11D4B1B6803F06A
:10112C000203002BF0D17B681B6803F00803002B33
:10113C003AD07B689B69002B19D0174B01221A609F
:10114C00FFF744FC386108E0FFF740FC02463B69BE
:10115C00D31A022B01D9032360E10D4B5B6A03F018
:10116C000203002BF0D0012000F09CFA1CE00A4B8B
:10117C0000221A60FFF72AFC38610FE0FFF726FC0B
:10118C0002463B69D31A022B08D9032346E100BF60
:10119C00001002400000424280044242924B5B6AC3
:1011AC0003F00203002BE9D17B681B6803F00403F6
:1011BC00002B00F0A6800023FB758B4BDB6903F042
:1011CC008053002B0DD1884BDB69874A43F0805349
:1011DC00D361854BDB6903F08053BB60BB68012393
:1011EC00FB75824B1B6803F48073002B18D17F4B6B
:1011FC001B687E4A43F480731360FFF7E7FB38618A
:10120C0008E0FFF7E3FB02463B69D31A642B01D9D4
:10121C00032303E1754B1B6803F48073002BF0D0A0
:10122C007B68DB68012B06D16F4B1B6A6E4A43F05F
:10123C00010313622DE07B68DB68002B0CD16A4B39
:10124C001B6A694A23F001031362674B1B6A664AE7
:10125C0023F0040313621CE07B68DB68052B0CD1C4
:10126C00614B1B6A604A43F0040313625E4B1B6ABA
:10127C005D4A43F0010313620BE05B4B1B6A5A4A55
:10128C0023F001031362584B1B6A574A23F00403E3
:10129C0013627B68DB68002B15D0FFF797FB386176
:1012AC000AE0FFF793FB02463B69D31A41F28832FE
:1012BC00934201D90323B1E04B4B1B6A03F00203A9
:1012CC00002BEED014E0FFF781FB38610AE0FFF74A
:1012DC007DFB02463B69D31A41F28832934201D915
:1012EC0003239BE0404B1B6A03F00203002BEED15F
:1012FC00FB7D012B05D13C4BDB693B4A23F0805332
:10130C00D3617B68DB69002B00F08780364B5B6810
:10131C0003F00C03082B61D07B68DB69022B46D1F0
:10132C00334B00221A60FFF751FB386108E0FFF7DE
:10133C004DFB02463B69D31A022B01D903236DE006
:10134C00294B1B6803F00073002BF0D17B681B6AE0
:10135C00B3F5803F08D1244B5B6823F400327B68E3
:10136C009B68214913434B601F4B5B6823F4741239
:10137C007B68196A7B685B6A0B431B4913434B60A0
:10138C001B4B01221A60FFF721FB386108E0FFF7C5
:10139C001DFB02463B69D31A022B01D903233DE006
:1013AC00114B1B6803F00073002BF0D035E0104B91
:1013BC0000221A60FFF70AFB386108E0FFF706FB12
:1013CC0002463B69D31A022B01D9032326E0064BB4
:1013DC001B6803F00073002BF0D11EE07B68DB6907
:1013EC00012B07D1012319E00010024000700040CE
:1013FC00600042420B4B5B68FB60FB6803F480327D
:10140C007B681B6A9A4206D1FB6803F470127B68F6
:10141C005B6A9A4201D0012300E00023184618377A
:10142C00BD4680BD0010024080B584B000AF78602E
:10143C0039607B68002B01D10123D0E06A4B1B681B
:10144C0003F007033A689A4210D9674B1B6823F0E4
:10145C00070265493B6813430B60634B1B6803F041
:10146C0007033A689A4201D00123B8E07B681B68F5
:10147C0003F00203002B20D07B681B6803F00403ED
:10148C00002B05D0594B5B68584A43F4E06353601A
:10149C007B681B6803F00803002B05D0534B5B687B
:1014AC00524A43F460535360504B5B6823F0F00294
:1014BC007B689B684D4913434B607B681B6803F04A
:1014CC000103002B40D07B685B68012B07D1474B95
:1014DC001B6803F40033002B15D101237FE07B68DC
:1014EC005B68022B07D1414B1B6803F00073002B88
:1014FC0009D1012373E03D4B1B6803F00203002B61
:10150C0001D101236BE0394B5B6823F003027B684C
:10151C005B68364913434B60FFF758FAF8600AE0F2
:10152C00FFF754FA0246FB68D31A41F28832934211
:10153C0001D9032353E02D4B5B6803F00C027B684D
:10154C005B689B009A42EBD1274B1B6803F00703A7
:10155C003A689A4210D2244B1B6823F007022249A6
:10156C003B6813430B60204B1B6803F007033A687E
:10157C009A4201D0012332E07B681B6803F004031C
:10158C00002B08D0194B5B6823F4E0627B68DB68A6
:10159C00164913434B607B681B6803F00803002B50
:1015AC0009D0124B5B6823F460527B681B69DB002B
:1015BC000E4913434B6000F021F802460B4B5B685D
:1015CC001B0903F00F030A49CB5C22FA03F3094A07
:1015DC001360094B1B681846FFF7B6F90023184631
:1015EC001037BD4680BD00BF0020024000100240F5
:1015FC002C1F00080C0000201000002080B487B0C5
:10160C0000AF0023FB600023BB6000237B61002341
:10161C007B6000233B611E4B5B68FB60FB6803F047
:10162C000C03042B02D0082B03D027E0194B3B6191
:10163C0027E0FB689B0C03F00F03174AD35C7B601D
:10164C00FB6803F48033002B10D0114B5B685B0CF0
:10165C0003F00103114AD35CBB607B680D4A03FBAA
:10166C0002F2BB68B2FBF3F37B6104E07B680C4ACB
:10167C0002FB03F37B617B693B6102E0054B3B6141
:10168C0000BF3B6918461C37BD4680BC704700BF85
:10169C000010024000127A003C1F00084C1F00088A
:1016AC0000093D0080B485B000AF78600A4B1B6820
:1016BC000A4AA2FB03235B0A7A6802FB03F3FB6072
:1016CC0000BFFB685A1EFA60002BF9D100BF00BFA7
:1016DC001437BD4680BC70470C000020D34D6210FF
:1016EC0080B582B000AF78607B68002B01D10123FC
:1016FC0041E07B6893F83D30DBB2002B06D17B6870
:10170C00002283F83C207868FFF782F87B6802227D
:10171C0083F83D207B681A687B68043319461046B1
:10172C0000F06EFA7B68012283F846207B68012268
:10173C0083F83E207B68012283F83F207B680122DE
:10174C0083F840207B68012283F841207B680122CA
:10175C0083F842207B68012283F843207B680122B6
:10176C0083F844207B68012283F845207B680122A2
:10177C0083F83D20002318460837BD4680BD000085
:10178C0080B485B000AF78607B6893F83D30DBB2F5
:10179C00012B01D0012335E07B68022283F83D2028
:1017AC007B681B68DA687B681B6842F00102DA60B0
:1017BC007B681B68164A934209D07B681B68B3F19F
:1017CC00804F04D07B681B68124A934211D17B680E
:1017DC001B689B6803F00703FB60FB68062B10D0AB
:1017EC007B681B681A687B681B6842F001021A60F0
:1017FC0007E07B681B681A687B681B6842F0010273
:10180C001A60002318461437BD4680BC704700BFD1
:10181C00002C01400004004080B582B000AF78601D
:10182C007B681B681B6903F00203022B22D17B68C7
:10183C001B68DB6803F00203022B1BD17B681B685F
:10184C006FF002021A617B6801221A777B681B68B1
:10185C009B6903F00303002B03D0786800F0B4F904
:10186C0005E0786800F0A7F9786800F0B6F97B68B5
:10187C0000221A777B681B681B6903F00403042B96
:10188C0022D17B681B68DB6803F00403042B1BD19B
:10189C007B681B686FF004021A617B6802221A775E
:1018AC007B681B689B6903F44073002B03D078683A
:1018BC0000F08AF905E0786800F07DF9786800F0AE
:1018CC008CF97B6800221A777B681B681B6903F014
:1018DC000803082B22D17B681B68DB6803F0080324
:1018EC00082B1BD17B681B686FF008021A617B68A0
:1018FC0004221A777B681B68DB6903F00303002B57
:10190C0003D0786800F060F905E0786800F053F9CE
:10191C00786800F062F97B6800221A777B681B6894
:10192C001B6903F01003102B22D17B681B68DB684A
:10193C0003F01003102B1BD17B681B686FF0100297
:10194C001A617B6808221A777B681B68DB6903F4D1
:10195C004073002B03D0786800F036F905E0786806
:10196C0000F029F9786800F038F97B6800221A77C2
:10197C007B681B681B6903F00103012B0ED17B688C
:10198C001B68DB6803F00103012B07D17B681B6824
:10199C006FF001021A617868FEF7F8FE7B681B682D
:1019AC001B6903F08003802B0ED17B681B68DB68FE
:1019BC0003F08003802B07D17B681B686FF08002DB
:1019CC001A61786800F06BFA7B681B681B6903F07E
:1019DC004003402B0ED17B681B68DB6803F040038F
:1019EC00402B07D17B681B686FF040021A61786846
:1019FC0000F0FCF87B681B681B6903F02003202BAC
:101A0C000ED17B681B68DB6803F02003202B07D109
:101A1C007B681B686FF020021A61786800F036FA58
:101A2C0000BF0837BD4680BD80B584B000AF78607C
:101A3C0039600023FB737B6893F83C30012B01D198
:101A4C000223B4E07B68012283F83C207B680222ED
:101A5C0083F83D207B681B689B68BB60BB6823F0E8
:101A6C007703BB60BB6823F47F43BB607B681B6858
:101A7C00BA689A603B681B68B3F5005F3ED0B3F55B
:101A8C00005F00F28780B3F5805F00F08680B3F5CD
:101A9C00805F7FD8702B1AD0702B7BD8602B50D0E6
:101AAC00602B77D8502B3CD0502B73D8402B58D070
:101ABC00402B6FD8302B64D0302B6BD8202B60D0C0
:101ACC00202B67D8002B5CD0102B5AD062E07B689F
:101ADC0018683B6899683B685A683B68DB6800F09B
:101AEC005EF97B681B689B68BB60BB6843F077033F
:101AFC00BB607B681B68BA689A604FE07B681868AB
:101B0C003B6899683B685A683B68DB6800F047F9AA
:101B1C007B681B689A687B681B6842F480429A60F9
:101B2C003CE07B6818683B6859683B68DB681A4680
:101B3C0000F0BEF87B681B685021184600F015F9C0
:101B4C002CE07B6818683B6859683B68DB681A4670
:101B5C0000F0DCF87B681B686021184600F005F982
:101B6C001CE07B6818683B6859683B68DB681A4660
:101B7C0000F09EF87B681B684021184600F0F5F8D1
:101B8C000CE07B681A683B681B681946104600F02D
:101B9C00ECF803E00123FB7300E000BF7B6801223B
:101BAC0083F83D207B68002283F83C20FB7B1846A1
:101BBC001037BD4680BD80B483B000AF786000BFE5
:101BCC000C37BD4680BC704780B483B000AF7860E2
:101BDC0000BF0C37BD4680BC704780B483B000AFEB
:101BEC00786000BF0C37BD4680BC704780B483B0B2
:101BFC0000AF786000BF0C37BD4680BC704700005A
:101C0C0080B485B000AF786039607B681B68FB607E
:101C1C007B68254A934207D07B68B3F1804F03D091
:101C2C007B68224A934208D1FB6823F07003FB6067
:101C3C003B685B68FA681343FB607B681A4A934203
:101C4C0007D07B68B3F1804F03D07B68174A93426F
:101C5C0008D1FB6823F44073FB603B68DB68FA68CF
:101C6C001343FB60FB6823F080023B685B69134302
:101C7C00FB607B68FA681A603B689A687B68DA627A
:101C8C003B681A687B689A627B68074A934203D167
:101C9C003B681A697B681A637B6801225A6100BF32
:101CAC001437BD4680BC7047002C01400004004036
:101CBC0080B487B000AFF860B9607A60FB681B6ACB
:101CCC007B61FB681B6A23F00102FB681A62FB68EC
:101CDC009B693B613B6923F0F0033B617B681B0113
:101CEC003A6913433B617B6923F00A037B617A6990
:101CFC00BB6813437B61FB683A699A61FB687A693C
:101D0C001A6200BF1C37BD4680BC704780B487B0D8
:101D1C0000AFF860B9607A60FB681B6A7B61FB6896
:101D2C001B6A23F01002FB681A62FB689B693B611B
:101D3C003B6923F470433B617B681B033A69134393
:101D4C003B617B6923F0A0037B61BB681B017A6953
:101D5C0013437B61FB683A699A61FB687A691A6282
:101D6C0000BF1C37BD4680BC704780B485B000AF47
:101D7C00786039607B689B68FB60FB6823F07003BC
:101D8C00FB603A68FB68134343F00703FB607B6816
:101D9C00FA689A6000BF1437BD4680BC704780B4A7
:101DAC0087B000AFF860B9607A603B60FB689B68F5
:101DBC007B617B6923F47F437B613B681A027B6800
:101DCC001A43BB6813437A6913437B61FB687A69D6
:101DDC009A6000BF1C37BD4680BC704780B485B08C
:101DEC0000AF786039607B6893F83C30012B01D1EF
:101DFC00022341E07B68012283F83C207B680222AD
:101E0C0083F83D207B681B685B68FB607B681B6804
:101E1C009B68BB60FB6823F07003FB603B681B682E
:101E2C00FA681343FB607B681B68FA685A607B682E
:101E3C001B68144A934209D07B681B68B3F1804F2E
:101E4C0004D07B681B68104A93420CD1BB6823F00A
:101E5C008003BB603B685B68BA681343BB607B68FC
:101E6C001B68BA689A607B68012283F83D207B6806
:101E7C00002283F83C20002318461437BD4680BC52
:101E8C00704700BF002C01400004004080B483B0B8
:101E9C0000AF786000BF0C37BD4680BC704780B483
:101EAC0083B000AF786000BF0C37BD4680BC704774
:101EBC0003460244934200D1704703F8011BF9E733
:101ECC0070B500260C4D0D4C641BA410A64209D114
:101EDC0000F01AF800260A4D0A4C641BA410A64206
:101EEC0005D170BD55F8043B98470136EEE755F81F
:101EFC00043B98470136F2E7501F0008501F0008BA
:101F0C00501F0008541F0008F8B500BFF8BC08BCEF
:101F1C009E467047F8B500BFF8BC08BC9E4670479B
:101F2C00000000000000000001020304060708097D
:101F3C0002030405060708090A0B0C0D0E0F1010FE
:041F4C00010200008E
:041F50003101000853
:041F54000D01000873
:101F5800183C667E666666000A0000000024F400ED
:081F6800100000000100000060
:04000005080008DD0A
:00000001FF
